:040000008131F12930
:10000800803120007F08D5008B13911CCA2821005D
:10001800911CCA2891107A08203E86008701633017
:100028000106031988287C080319C2287A08203E8B
:10003800860087010108031D40287B0303198B28CC
:1000480002307B0603195C2803307B0603198B28D2
:1000580004307B06031D8528F7302000CD004D08AD
:1000680022008E05183020009B00FB01FB0A01309E
:10007800CD004D08FA07C2287A08203E860087017D
:100088000103031D55287B030319672802307B06EB
:10009800031D6328F7302000CD004D0822008E058F
:1000A8008D287B0303198B2802307B06031D6328E8
:1000B800F7302000CD004D0822008E056928033056
:1000C8007B06031D712822008E15183020009B0026
:1000D8000130CD004D08FB07C22804307B06031D04
:1000E8008528F7302000CD004D0822008E05083005
:1000F80020009B00FB01FB0A0130CD004D08FA07E8
:100108009428FB01FB0AC1287B03031D96282200C3
:100118008E15083020009B000130CD004D08FB07EC
:100128009A01C22802307B06031DB028F730200050
:10013800CD004D0822008E05F03020009B000130D4
:10014800CD004D08FB070130C00240080319C22842
:10015800FB01FB0AFA01C22887316B278031200096
:100168009210BC01BD01FF3087314D2780318731A6
:1001780048278031873138278031FC0120009110D1
:100188007C080319EC2921009114EC292000111C8A
:10019800E4282100111CE428111087315E278031E2
:1001A800873168278031FD0100302000C40000300D
:1001B800C3000030C2000030C100F9011110EC2961
:1001C8002700191A8B1DB4291712181220001608B7
:1001D800CD00CE014D08B8004E08B9001708CD0073
:1001E800CE014D08CE00CD014D08B8074E08B93DE7
:1001F80087316827803187315E27803120001110D0
:1002080087316E2780312100111448307902031894
:10021800862979080319782979082000CD00CE01AC
:10022800CD35CE0D4D08FE3ECF00FF304E3DD000FF
:100238006030D1002130D2004F08510786005008A5
:10024800523D87003808C03F3908C13F7908CD00C2
:10025800CE01CD35CE0D4D08FE3ECF00FF304E3DD0
:10026800D0006030D1002130D2004F0851078600FD
:100278005008523D8700403FD300413FD4005730DB
:100288005402E43003195302031C81297908CD0074
:10029800CE01CD35CE0D4D08FE3ECF00FF304E3D90
:1002A800D0006030D1002130D2004F0851078600BD
:1002B8005008523D8700403FD300413FD400613091
:1002C8005402A93003195302031881290230CD00C2
:1002D8004D08FD00F9016030860021308700E430C8
:1002E800C03F5730C13F81292000BA01BB01873187
:1002F8006827803187316E27803101302000CD009A
:100308004D08F90748307906031DAE292000111061
:10031800210011108731682780317D08031DA62927
:100328006030F0002130F10041302000CD004D0850
:10033800F200F301F30A82312C2280312000CE0032
:100348004E08FD00F9012000BA01BB010130CD00C3
:100358004D08BF0027001716181619120B10EC29A4
:100368002000921CD6292100921CD62987312527E6
:100378008031003020003D02063003193C0203188A
:10038800D12987316B278031873148278031013067
:100398002000BC070030BD3DEC290130CD004D08E0
:1003A800DE00EC292000121DEB292100121DEB298B
:1003B80087311E278031F8302000CD004D082200FB
:1003C8008E0501302000CD004D08DD00EC2900002D
:1003D8008B1720005508FF0009008131F329603090
:1003E8008400213085009030FE000030FF00863107
:1003F80055268131F901FA01FB01FC01FD0120308C
:100408008400003085002530FE000030FF00863172
:100418005526813152308400873085005B30860054
:10042800003087000030FF000430863161268131BA
:100438004930840086308500A0308600003087006F
:100448000030FF000C3086316126200084319A2C60
:100458002000C901CA014830F4007408CC000030FB
:10046800C8000030C7000030C6000030C500CB010E
:1004780048304B020318A72A4B08F400F501F4355D
:10048800F50D7408700786007508713D8700403FB8
:10049800F600413FF70057307702E430031976023F
:1004A800031C6E2A4B08F400F501F435F50D7408A9
:1004B800700786007508713D8700403FF600413F90
:1004C800F70061307702A9300319760203186E2A03
:1004D800023008004B08F400F501F435F50D7408F6
:1004E800700786007508713D8700403FF600413F60
:1004F800F70007307702D03003197602031C9F2AD1
:100508004B08F400F501F435F50D74087007860002
:100518007508713D8700403FF600413FF7000930FC
:100528007702C5300319760203189F2A4B08F40096
:100538007408CC00A72A0130F4007408CB074830AF
:100548004B02031C402A4C08F400F501F409F50994
:10055800F40A0319F50A7408483EF6000030753DA0
:10056800F7007708803AF80080307802031DBE2A29
:10057800483076020318C22A003008000130F4001F
:1005880074082000CC074C08F400F501F435F50D8B
:100598007408700786007508713D8700403FF600B3
:1005A800413FF700033077026B3003197602031CD2
:1005B800F32A4C08F400F501F435F50D74087007BA
:1005C80086007508713D8700403FF600413FF700FF
:1005D80005307702603003197602031CF52A0030D3
:1005E80008000130F4007408CC074C08F4007408C3
:1005F800CB0048304B020318982C4C08F400F50146
:10060800F435F50D7408700786007508713D87008C
:10061800403FF600413FF700003077023E300319B3
:100628007602031C582B4C08F400F501F435F50D3F
:100638007408700786007508713D8700403FF60012
:10064800413FF700013077022D3003197602031875
:10065800582B0330490603194B2B4A08031D372B27
:10066800CA01CA0A8C2CCA010130C535C60DC70D8E
:10067800C80D890B392B7308031D8C2C0130C50755
:100688000030C63D0030C73D0030C83D8C2C720894
:10069800860087014508C03F4608C13F4708C23F5A
:1006A8004808C33F013008004C08F400F501F43550
:1006B800F50D7408700786007508713D8700403F86
:1006C800F600413FF700013077025E3003197602E9
:1006D800031C9D2B4C08F400F501F435F50D740846
:1006E800700786007508713D8700403FF600413F5E
:1006F800F70001307702AA300319760203189D2B00
:100708004A0803199B2B0130C535C60DC70DC80D06
:10071800890B882B73080319992B0130C507003002
:10072800C63D0030C73D0030C83DCA018C2C0030A2
:1007380008004C08F400F501F435F50D740870074D
:1007480086007508713D870016000104031DBC2B47
:100758004A03031DBC2B7208860087014508C03F69
:100768004608C13F4708C23F4808C33F0130080058
:100778004C08F400F501F435F50D7408700786008F
:100788007508713D8700403FF600413FF70025306E
:1007980077021C3003197602031CEB2B4C08F4007B
:1007A800F501F435F50D7408700786007508713D7C
:1007B8008700403FF600413FF700293077020530B7
:1007C800031976020318EB2BC901C90A8C2C4903BB
:1007D800031D1C2C4C08F400F501F435F50D7408C4
:1007E800700786007508713D8700403FF600413F5D
:1007F800F70007307702D03003197602031C1C2C4F
:100808004C08F400F501F435F50D740870078600FE
:100818007508713D8700403FF600413FF7000930F9
:100828007702C5300319760203181C2C02304D2CB0
:1008380002304906031D512C4C08F400F501F4352B
:10084800F50D7408700786007508713D8700403FF4
:10085800F600413FF70001307702CE3003197602E7
:10086800031C512C4C08F400F501F435F50D7408FF
:10087800700786007508713D8700403FF600413FCC
:10088800F700023077027230031976020318512CF0
:100898000330F4007408C9008C2C4C08F400F501EE
:1008A800F435F50D7408700786007508713D8700EA
:1008B800403FF600413FF70057307702E430031914
:1008C8007602031C8A2C4C08F400F501F435F50D6A
:1008D8007408700786007508713D8700403FF60070
:1008E800413FF70061307702A930031976020318F7
:1008F8008A2C7208860087014508C03F4608C13F18
:100908004708C23F4808C33F0230080000300800CB
:100918000130F4007408CC070130F4007408CB07E8
:1009280048304B02031C012B003008002100B501A0
:1009380086313C26843186312A26843186316D26DB
:10094800843187311027843122000E152100B5012A
:100958000A3035020318E12C22000E14FD30210064
:10096800B400340822008E0500302000D900003081
:10097800D8009C30D7004030D6008531C625843158
:1009880022008E14FE302100B400340822008E05A7
:1009980000302000D9000030D8009C30D70040300B
:1009A800D6008531C625843101302100B4003408D1
:1009B800B5070A303502031CB02CF930B4003408EE
:1009C80022008E057D080319FD2C20004408210013
:1009D800B100200043082100B00020004208210097
:1009E800AF00200041082100AE007D3085312E2562
:1009F800843120005E080319252D5D080319252D73
:100A08003F080319252D3708031D132D3608031D2C
:100A1800132DE93034020330353B031C1B2DBF0175
:100A280063000000000086313C268431E62C01304A
:100A38002000B4070030B53D0030B63D0030B73D6A
:100A4800E62C0030B7000030B6000030B5000030AA
:100A5800B400E62C2000DA0087311727853187316A
:100A68006527853120005A08860087010230010673
:100A7800031D422D22000E152000DD01AF3021009C
:100A88002E06503003192F06E330031930061C30A8
:100A980003193106031D652D22000E142000DD0107
:100AA8000C302100B20032082000D6000A302100A4
:100AB800B30033082000D700A03085317B2585316D
:100AC800692D22008E142000DD0120005E08031924
:100AD800692DFF3087313227853120001211873187
:100AE8003E2720005A08860087018101080021005E
:100AF800AC0020005E03031DC42DDE015708D8009A
:100B08005808C0000130D8005808FC00FA01FB0161
:100B1800FB0A14305602031C932D003008002100F4
:100B2800AD012000560821002D020318B22D2D0812
:100B38002C072000D8005808860087010108D90032
:100B480021002D08203E86008701200059088100D9
:100B58000130D80058082100AD07952D63302000DA
:100B6800D80021002D08203E860087012000580863
:100B780081009A01F0309B0087314327013008003B
:100B88000230080000302100AF000030AE00003015
:100B9800AD000030AC002F08803A2000DA00590878
:100BA800803A5A022100031DE92D2000580821002F
:100BB8002E02031DE92D2000570821002D02031DD8
:100BC800E92D2000560821002C0203180800B00166
:100BD800083030020318FB2D000001302000DA0035
:100BE8005A082100B00708303002031CF02D1F30CE
:100BF800AC070030AD3D0030AE3D0030AF3DCF2DED
:100C080020001C08873970389C001C08FC39013802
:100C18009C0025001A08F0390A389A00FF30200095
:100C28009B0087312C2708003F3020009805303082
:100C3800980425001308F0390A3893002100111090
:100C480087315627863187316227080021000E1028
:100C58008E100E118E118E160E1623008E01260090
:100C68008E1122008E01230097140B178B17080092
:100C780021001908873970389900991300301A181B
:100C880001301A05031D0800422E033400340334D2
:100C980003340334033400340034013400340034A2
:100CA80000346400800101310130FE020030FF3B56
:100CB8007F087E0403190034562EFE0012001E0021
:100CC8000130FE020030FF3B7F087E040319003428
:100CD800622E863118268631863104268631863181
:100CE80085268631863179260800783028009E04CA
:100CF8001E08FC3902389E00FF309D0087311727F7
:100D080008007830280097041708FC390238970043
:0A0D1800FF3096008731092708001C
:100E000036342E3430345F34443457343034613423
:100E100000342800171120009210210092100800C1
:100E200087315A2787318B1586311826080028000C
:100E30001E112000121121001211080028001E119D
:100E400020001211210012110800280017112000A3
:100E5000921021009210080020001C119110210016
:100E6000911008002000D600560828009D000800B8
:100E700020001C11911021009110080028001E155F
:100E800021001215080020001C15210091140800F3
:100E900028001715210092140800F000700828009F
:100EA00096000800C434093401340134200097014D
:100EB0009601080027001716181608002000970151
:100EC0009601080020001810080028009C01080066
:100ED00020001810080028009501080020001814B0
:020EE000080008
:020000040001F9
:04000E00E4CFFBFE42
:00000001FF
