:040000008131E4293D
:10000800803120007F08D5008B13911CC82821005F
:1000180091107A08203E8600870163300106031993
:1000280086287C080319C0287A08203E86008701A4
:100038000108031D3E287B030319892802307B062B
:1000480003195A2803307B060319892804307B06D4
:10005800031D8328F7302000CD004D0822008E05AF
:10006800183020009B00FB01FB0A0130CD004D0831
:10007800FA07C0287A08203E860087010103031D7D
:1000880053287B030319652802307B06031D61286A
:10009800F7302000CD004D0822008E058B287B0309
:1000A8000319892802307B06031D6128F7302000D8
:1000B800CD004D0822008E05672803307B06031DFE
:1000C8006F2822008E15183020009B000130CD00CB
:1000D8004D08FB07C02804307B06031D8328F73032
:1000E8002000CD004D0822008E05083020009B001E
:1000F800FB01FB0A0130CD004D08FA079228FB01ED
:10010800FB0ABF287B03031D942822008E150830A4
:1001180020009B000130CD004D08FB079A01C02844
:1001280002307B06031DAE28F7302000CD004D08B5
:1001380022008E05F03020009B000130CD004D08D4
:10014800FB070130C00240080319C028FB01FB0A65
:10015800FA01C02887316B27803120009210BC013A
:10016800BD01FF3087314D278031873148278031E5
:10017800873138278031FC01200091107C08031951
:10018800DF2921009114DF29111CDF28210011101B
:1001980087315E278031873168278031FD01003043
:1001A8002000C4000030C3000030C2000030C1008D
:1001B800F9011110DF292700191EAE29171218128C
:1001C80020001608CD00CE014D08B8004E08B90031
:1001D8001708CD00CE014D08CE00CD014D08B80757
:1001E8004E08B93D87316827803187315E278031D5
:1001F8002000111087316E278031210011144830FA
:1002080079020318802979080319722979082000CE
:10021800CD00CE01CD35CE0D4D08FE3ECF00FF30CE
:100228004E3DD0006030D1002130D2004F08510738
:1002380086005008523D87003808C03F3908C13F42
:100248007908CD00CE01CD35CE0D4D08FE3ECF004C
:10025800FF304E3DD0006030D1002130D2004F0831
:10026800510786005008523D8700403FD300413F68
:10027800D40057305402E43003195302031C7B297D
:100288007908CD00CE01CD35CE0D4D08FE3ECF000C
:10029800FF304E3DD0006030D1002130D2004F08F1
:1002A800510786005008523D8700403FD300413F28
:1002B800D40061305402A9300319530203187B2972
:1002C8000230CD004D08FD00F90160308600213074
:1002D8008700E430C03F5730C13F7B292000BA0176
:1002E800BB0187316827803187316E278031013023
:1002F8002000CD004D08F90748307906031DA829CC
:1003080020001110210011108731682780317D08E5
:10031800031DA0296030F0002130F1004130200099
:10032800CD004D08F200F301F30A82311F2280311B
:100338002000CE004E08FD00F9012000BA01BB01E3
:100348000130CD004D08BF002700171618161912E6
:100358000B10DF292000921CCD29873125278031F9
:10036800003020003D02063003193C020318C8295A
:1003780087316B2780318731482780310130200051
:10038800BC070030BD3DDF290130CD004D08DE003F
:10039800DF29121DDE2987311E278031F830200021
:1003A800CD004D0822008E0501302000CD004D08FB
:1003B800DD00DF2900008B1720005508FF00090029
:1003C8008131E62960308400213085009030FE00BC
:1003D8000030FF00863148268131F901FA01FB011E
:1003E800FC01FD0120308400003085002530FE002E
:1003F8000030FF0086314826813152308400873032
:1004080085005B308600003087000030FF00043034
:100418008631542681313C30840086308500A030F6
:100428008600003087000030FF000C3086315426EB
:10043800200084318D2C2000C901CA014830F40005
:100448007408CC000030C8000030C7000030C60077
:100458000030C500CB0148304B0203189A2A4B08DC
:10046800F400F501F435F50D740870078600750879
:10047800713D8700403FF600413FF7005730770253
:10048800E43003197602031C612A4B08F400F501D5
:10049800F435F50D7408700786007508713D8700FE
:1004A800403FF600413FF70061307702A930031959
:1004B80076020318612A023008004B08F400F5019F
:1004C800F435F50D7408700786007508713D8700CE
:1004D800403FF600413FF70007307702D03003195C
:1004E8007602031C922A4B08F400F501F435F50D49
:1004F8007408700786007508713D8700403FF60054
:10050800413FF70009307702C53003197602031816
:10051800922A4B08F4007408CC009A2A0130F4009F
:100528007408CB0748304B02031C332A4C08F400EC
:10053800F501F409F509F40A0319F50A7408483EA7
:10054800F6000030753DF7007708803AF8008030F3
:100558007802031DB12A483076020318B52A003004
:1005680008000130F40074082000CC074C08F4009F
:10057800F501F435F50D7408700786007508713DAE
:100588008700403FF600413FF700033077026B30A9
:1005980003197602031CE62A4C08F400F501F43529
:1005A800F50D7408700786007508713D8700403F97
:1005B800F600413FF70005307702603003197602F4
:1005C800031CE82A003008000130F4007408CC0746
:1005D8004C08F4007408CB0048304B0203188B2CED
:1005E8004C08F400F501F435F50D74087007860021
:1005F8007508713D8700403FF600413FF700003025
:1006080077023E3003197602031C4B2B4C08F4008A
:10061800F501F435F50D7408700786007508713D0D
:100628008700403FF600413FF700013077022D3048
:100638000319760203184B2B0330490603193E2B86
:100648004A08031D2A2BCA01CA0A7F2CCA01013095
:10065800C535C60DC70DC80D890B2C2B7308031D96
:100668007F2C0130C5070030C63D0030C73D003043
:10067800C83D7F2C7208860087014508C03F4608A0
:10068800C13F4708C23F4808C33F013008004C0833
:10069800F400F501F435F50D740870078600750847
:1006A800713D8700403FF600413FF7000130770277
:1006B8005E3003197602031C902B4C08F400F501F8
:1006C800F435F50D7408700786007508713D8700CC
:1006D800403FF600413FF70001307702AA30031986
:1006E80076020318902B4A0803198E2B0130C53562
:1006F800C60DC70DC80D890B7B2B730803198C2BEE
:100708000130C5070030C63D0030C73D0030C83D48
:10071800CA017F2C003008004C08F400F501F435BC
:10072800F50D7408700786007508713D870016007E
:100738000104031DAF2B4A03031DAF2B720886006B
:1007480087014508C03F4608C13F4708C23F4808DF
:10075800C33F013008004C08F400F501F435F50DED
:100768007408700786007508713D8700403FF600E1
:10077800413FF700253077021C3003197602031C2D
:10078800DE2B4C08F400F501F435F50D74087007FC
:1007980086007508713D8700403FF600413FF7002D
:1007A800293077020530031976020318DE2BC901B8
:1007B800C90A7F2C4903031D0F2C4C08F400F501CE
:1007C800F435F50D7408700786007508713D8700CB
:1007D800403FF600413FF70007307702D030031959
:1007E8007602031C0F2C4C08F400F501F435F50DC6
:1007F8007408700786007508713D8700403FF60051
:10080800413FF70009307702C53003197602031813
:100818000F2C0230402C02304906031D442C4C0892
:10082800F400F501F435F50D7408700786007508B5
:10083800713D8700403FF600413FF70001307702E5
:10084800CE3003197602031C442C4C08F400F50141
:10085800F435F50D7408700786007508713D87003A
:10086800403FF600413FF70002307702723003192B
:1008780076020318442C0330F4007408C9007F2C56
:100888004C08F400F501F435F50D7408700786007E
:100898007508713D8700403FF600413FF70057302B
:1008A8007702E43003197602031C7D2C4C08F4000F
:1008B800F501F435F50D7408700786007508713D6B
:1008C8008700403FF600413FF70061307702A930CA
:1008D8000319760203187D2C7208860087014508E3
:1008E800C03F4608C13F4708C23F4808C33F0230DF
:1008F8000800003008000130F4007408CC0701300B
:10090800F4007408CB0748304B02031CF42A00306B
:1009180008002100B50186312F26843186311D2635
:100928008431863160268431873110278431220052
:100938000E152100B5010A3035020318D42C220007
:100948000E14FD302100B400340822008E0500305A
:100958002000D9000030D8009C30D7004030D600A5
:100968008531B925843122008E14FE302100B4006F
:10097800340822008E0500302000D9000030D8004D
:100988009C30D7004030D6008531B92584310130FC
:100998002100B4003408B5070A303502031CA32C23
:1009A800F930B400340822008E057D080319F02CB4
:1009B800200044082100B100200043082100B000B5
:1009C800200042082100AF00200041082100AE00AD
:1009D8007D3085312125843120005E080319182DCA
:1009E8005D080319182D3F080319182D3708031D32
:1009F800062D3608031D062DE93034020330353B39
:100A0800031C0E2DBF0163000000000086312F2655
:100A18008431D92C01302000B4070030B53D0030B6
:100A2800B63D0030B73DD92C0030B7000030B600D5
:100A38000030B5000030B400D92C2000DA0087312E
:100A48001727853187316527853120005A088600A8
:100A5800870102300106031D352D22000E152000E6
:100A6800DD01AF3021002E06503003192F06E33088
:100A7800031930061C3003193106031D582D2200B6
:100A88000E142000DD010C302100B20032082000D5
:100A9800D6000A302100B30033082000D700A03068
:100AA80085316E2585315C2D22008E142000DD01F4
:100AB80020005E0803195C2DFF308731322785310D
:100AC8002000121187313E2720005A08860087012E
:100AD800810108002100AC0020005E03031DB72D32
:100AE800DE015708D8005808C0000130D80058085F
:100AF800FC00FA01FB01FB0A14305602031C862D88
:100B0800003008002100AD012000560821002D0208
:100B18000318A52D2D082C072000D800580886009A
:100B280087010108D90021002D08203E8600870191
:100B38002000590881000130D80058082100AD076D
:100B4800882D63302000D80021002D08203E860023
:100B580087012000580881009A01F0309B008731F6
:100B68004327013008000230080000302100AF00A0
:100B78000030AE000030AD000030AC002F08803AE5
:100B88002000DA005908803A5A022100031DDC2DA2
:100B98002000580821002E02031DDC2D20005708D4
:100BA80021002D02031DDC2D2000560821002C02F7
:100BB80003180800B001083030020318EE2D0000B9
:100BC80001302000DA005A082100B007083030024E
:100BD800031CE32D1F30AC070030AD3D0030AE3DA7
:100BE8000030AF3DC22D20001C08873970389C00AA
:100BF8001C08FC3901389C0025001A08F0390A380D
:100C08009A00FF3020009B0087312C2708003F30D6
:100C1800200098053030980425001308F0390A3868
:100C280093002100111087315627863187316227BA
:100C3800080021000E108E100E118E118E160E1641
:100C480023008E0126008E1122008E0123009714A6
:100C58000B178B170800210019088739703899007D
:100C6800991300301A1801301A05031D0800352E93
:100C780003340034033403340334033400340034BD
:100C88000134003400340034640080010131013043
:100C9800FE020030FF3B7F087E0403190034492E12
:100CA800FE0012001E000130FE020030FF3B7F08EC
:100CB8007E0403190034552E86310B268631853182
:100CC800F725863186317826863186316C260800EC
:100CD800783028009E041E08FC3902389E00FF3038
:100CE8009D008731172708007830280097041708D7
:100CF800FC3902389700FF30960087310927080031
:100E000031342E3430345F34443457343034613428
:100E100000342800171120009210210092100800C1
:100E200087315A2787318B1586310B260800280019
:100E30001E112000121121001211080028001E119D
:100E400020001211210012110800280017112000A3
:100E5000921021009210080020001C119110210016
:100E6000911008002000D600560828009D000800B8
:100E700020001C11911021009110080028001E155F
:100E800021001215080020001C15210091140800F3
:100E900028001715210092140800F000700828009F
:100EA00096000800C434093401340134200097014D
:100EB0009601080027001716181608002000970151
:100EC0009601080020001810080028009C01080066
:100ED00020001810080028009501080020001814B0
:020EE000080008
:020000040001F9
:04000E00E4CFFBFE42
:00000001FF
