:040000008131D3294E
:10000800803120007F08D0008B13911CC828210064
:1000180091107A08203E8600870163300106031993
:1000280086287C080319C0287A08203E86008701A4
:100038000108031D3E287B030319892802307B062B
:1000480003195A2803307B060319892804307B06D4
:10005800031D8328F7302000C800480822008E05B9
:10006800183020009B00FB01FB0A0130C80048083B
:10007800FA07C0287A08203E860087010103031D7D
:1000880053287B030319652802307B06031D61286A
:10009800F7302000C800480822008E058B287B0313
:1000A8000319892802307B06031D6128F7302000D8
:1000B800C800480822008E05672803307B06031D08
:1000C8006F2822008E15183020009B000130C800D0
:1000D8004808FB07C02804307B06031D8328F73037
:1000E8002000C800480822008E05083020009B0028
:1000F800FB01FB0A0130C8004808FA079228FB01F7
:10010800FB0ABF287B03031D942822008E150830A4
:1001180020009B000130C8004808FB079A01C0284E
:1001280002307B06031DAE28F7302000C8004808BF
:1001380022008E05F03020009B000130C8004808DE
:10014800FB070130BB023B080319C028FB01FB0A6F
:10015800FA01C02887316727803120009210B80142
:10016800B901FF3087314D278031873148278031E9
:10017800873138278031FC01200091107C08031951
:10018800CE2921009114CE29111CD7282100111045
:1001980087315A278031873164278031FD01F90181
:1001A80020001110CE292700191EA2291712181293
:1001B80020001608C800C9014808B4004908B5005D
:1001C8001708C800C9014808C900C8014808B40789
:1001D8004908B53D87316427803187315A278031F6
:1001E8002000111087316A2780312100111448300E
:1001F800790203187829790803196A2979082000EF
:10020800C800C901C835C90D4808FE3ECA00FF30FC
:10021800493DCB006030CC002130CD004A084C0766
:1002280086004B084D3D87003408C03F3508C13F64
:100238007908C800C901C835C90D4808FE3ECA007A
:10024800FF30493DCB006030CC002130CD004A085A
:100258004C0786004B084D3D8700403FCE00413F8C
:10026800CF0057304F02E43003194E02031C7329A4
:100278007908C800C901C835C90D4808FE3ECA003A
:10028800FF30493DCB006030CC002130CD004A081A
:100298004C0786004B084D3D8700403FCE00413F4C
:1002A800CF0061304F02A93003194E020318732999
:1002B8000230C8004808FD00F9016030860021308E
:1002C8008700E430C03F5730C13F73292000B60192
:1002D800B70187316427803187316A27803101303F
:1002E8002000C8004808F90748307906031D9C29F2
:1002F80020001110210011108731642780317D08FA
:10030800031D98296030F0002130F1003C302000B6
:10031800C8004808F200F301F30A82310022803154
:100328002000C9004908FD00F9012000B601B70105
:1003380027001716181619120B10CE292000921C28
:10034800C129873125278031003020003902063045
:10035800031938020318BC29873167278031873190
:100368004827803101302000B8070030B93DCE2938
:100378000130C8004808D300CE29121DCD29873185
:100388001E278031F8302000C800480822008E055A
:10039800CE2900008B1720005008FF00090081318A
:1003A800D52960308400213085009030FE0000306F
:1003B800FF008531E2258131F901FA01FB01FC01D9
:1003C800FD0120308400003085002030FE00003020
:1003D800FF008531E2258131C630840085308500F3
:1003E80051308600003087000030FF000F30853123
:1003F800EE25200084316E2C2000C401C501483050
:10040800F4007408C7000030C3000030C200003098
:10041800C1000030C000C6014830460203187B2ADC
:100428004608F400F501F435F50D740870078600E8
:100438007508713D8700403FF600413FF70057308F
:100448007702E43003197602031C422A4608F400B6
:10045800F501F435F50D7408700786007508713DCF
:100468008700403FF600413FF70061307702A9302E
:10047800031976020318422A023008004608F400DD
:10048800F501F435F50D7408700786007508713D9F
:100498008700403FF600413FF70007307702D03031
:1004A80003197602031C732A4608F400F501F43593
:1004B800F50D7408700786007508713D8700403F88
:1004C800F600413FF70009307702C530031976027C
:1004D8000318732A4608F4007408C7007B2A013001
:1004E800F4007408C60748304602031C142A47085B
:1004F800F400F501F409F509F40A0319F50A74087A
:10050800483EF6000030753DF7007708803AF8005D
:1005180080307802031D922A483076020318962A02
:10052800003008000130F40074082000C7074708AD
:10053800F400F501F435F50D7408700786007508A8
:10054800713D8700403FF600413FF70003307702D6
:100558006B3003197602031CC72A4708F400F5011B
:10056800F435F50D7408700786007508713D87002D
:10057800403FF600413FF70005307702603003192D
:100588007602031CC92A003008000130F400740800
:10059800C7074708F4007408C60048304602031825
:1005A8006C2C4708F400F501F435F50D7408700754
:1005B80086007508713D8700403FF600413FF7000F
:1005C800003077023E3003197602031C2C2B4708B3
:1005D800F400F501F435F50D740870078600750808
:1005E800713D8700403FF600413FF7000130770238
:1005F8002D300319760203182C2B033044060319F7
:100608001F2B4508031D0B2BC501C50A602CC5010E
:100618000130C035C10DC20DC30D890B0D2B7308F8
:10062800031D602C0130C0070030C13D0030C23DC1
:100638000030C33D602C7208860087014008C03F27
:100648004108C13F4208C23F4308C33F0130080088
:100658004708F400F501F435F50D740870078600B5
:100668007508713D8700403FF600413FF7000130B3
:1006780077025E3003197602031C712B4708F400D9
:10068800F501F435F50D7408700786007508713D9D
:100698008700403FF600413FF70001307702AA305B
:1006A800031976020318712B450803196F2B0130C3
:1006B800C035C10DC20DC30D890B5C2B730803191E
:1006C8006D2B0130C0070030C13D0030C23D003005
:1006D800C33DC501602C003008004708F400F5014F
:1006E800F435F50D7408700786007508713D8700AC
:1006F80016000104031D902B4503031D902B72085F
:10070800860087014008C03F4108C13F4208C23FF8
:100718004308C33F013008004708F400F501F435E9
:10072800F50D7408700786007508713D8700403F15
:10073800F600413FF700253077021C300319760296
:10074800031CBF2B4708F400F501F435F50D7408B8
:10075800700786007508713D8700403FF600413FED
:10076800F700293077020530031976020318BF2BEA
:10077800C401C40A602C4403031DF02B4708F4008D
:10078800F501F435F50D7408700786007508713D9C
:100798008700403FF600413FF70007307702D0302E
:1007A80003197602031CF02B4708F400F501F43511
:1007B800F50D7408700786007508713D8700403F85
:1007C800F600413FF70009307702C5300319760279
:1007D8000318F02B0230212C02304406031D252C6F
:1007E8004708F400F501F435F50D74087007860024
:1007F8007508713D8700403FF600413FF700013022
:100808007702CE3003197602031C252C4708F40022
:10081800F501F435F50D7408700786007508713D0B
:100828008700403FF600413FF70002307702723000
:10083800031976020318252C0330F4007408C40049
:10084800602C4708F400F501F435F50D74087007BD
:1008580086007508713D8700403FF600413FF7006C
:1008680057307702E43003197602031C5E2C4708E0
:10087800F400F501F435F50D740870078600750865
:10088800713D8700403FF600413FF7006130770235
:10089800A9300319760203185E2C720886008701B6
:1008A8004008C03F4108C13F4208C23F4308C33F18
:1008B80002300800003008000130F4007408C7074F
:1008C8000130F4007408C60748304602031CD52AD4
:1008D800003008002100AE018531D52584318531ED
:1008E800B62584318531FA25843187311027843142
:1008F80022000E152100AE010A302E020318B52C75
:1009080022000E14FD302100AD002D0822008E05B6
:1009180000302100A3000030A2009C30A10040302C
:10092800A00085315B25843122008E14FE30210021
:10093800AD002D0822008E0500302100A3000030F4
:10094800A2009C30A1004030A00085315B25843195
:1009580001302100AD002D08AE070A302E02031C1D
:10096800842CF930AD002D0822008E057D0803196E
:10097800BA2C20003F082100A90020003E082100D1
:10098800A80020003D082100A70020003C08210005
:10099800A6007D30853117258431BA2C2100A400AA
:1009A80020005303031D152DD30121002108A200A7
:1009B80022082000BB0001302100A2002208FC0010
:1009C800FA01FB01FB0A14302002031CED2C003055
:1009D8000800A501200825020318052D250824076D
:1009E800A2002208860087010108A3002508203EEE
:1009F80086008701230881000130A2002208A5078C
:100A0800EE2C6330A2002508203E860087012208CC
:100A1800810020009A01F0309B0087314327013084
:100A28000800023008002100AC0087311727853103
:100A380087316127853121002C0886008701023023
:100A48000106031D292D22000E15AF3021002606B0
:100A5800503003192706E330031928061C30031900
:100A68002906031D472D22000E140C302100AA0070
:100A78002A08A0000A30AB002B08A10054308431AA
:100A8800D2248531492D22008E14200053080319E1
:100A9800492DFF30873132278531200012118731E7
:100AA8003E2721002C0886008701810108000030BC
:100AB8002100A8000030A7000030A6000030A500E3
:100AC8002808803AA4002308803A2402031D762DC2
:100AD80022082702031D762D21082602031D762DE4
:100AE8002008250203180800A90108302902031864
:100AF800872D000001302100A4002408A907083030
:100B08002902031C7D2D1F30A5070030A63D0030AB
:100B1800A73D0030A83D642D20001C088739703897
:100B28009C001C08FC3901389C0025001A08F03983
:100B38000A389A00FF3020009B0087312C270800D4
:100B48003F30200098053030980425001308F0390C
:100B58000A389300210011108731522785318731D7
:100B68005E27080021000E108E100E118E118E16B1
:100B78000E1623008E0126008E1122008E010B17FF
:100B88008B170800C43409340134033400340334A7
:100B980003340334033400340034013400340034A3
:100BA80000342100190887397038990099130030EA
:100BB8001A1801301A05031D0800DB2D6400800196
:100BC80001310130FE020030FF3B7F087E0403192B
:100BD8000034E32DFE0012001E000130FE0200303A
:100BE800FF3B7F087E0403190034EF2D8531A425CF
:100BF80085318531902585318631122685318631BA
:100C080006260800783028009E041E08FC390238A1
:100C18009E00FF309D008731172708007830280094
:100C280097041708FC3902389700FF30960087317F
:040C38000927080080
:100E000031342E3430345F34443457343034613428
:100E100000342800171120009210210092100800C1
:100E20008731562787318B158531A4250800280086
:100E30001E112000121121001211080028001E119D
:100E400020001211210012110800280017112000A3
:100E5000921021009210080020001C119110210016
:100E6000911008002100A000200828009D00080023
:100E700020001C11911021009110080028001E155F
:100E800021001215080020001C15210091140800F3
:100E900028001715210092140800F000700828009F
:100EA00096000800200097019601080027001716F9
:100EB000181608002000970196010800200018105D
:100EC000080028009C0108002000181008002800D5
:0A0ED0009501080020001814080026
:020000040001F9
:04000E00E4CFFBFE42
:00000001FF
